:10000000FC1F002071080000F5010000F101000054
:1000100000000000000000000000000000000000E0
:10002000000000000000000000000000ED010000E2
:100030000000000000000000E90100005101000084
:1000400010B5064C2378002B07D1054B002B02D0AE
:10005000044800E000BF0123237010BD5C000020B5
:1000600000000000F4120000044B10B5002B03D078
:100070000349044800E000BF10BDC0460000000076
:1000800060000020F4120000030010B50800110009
:1000900098478022034B12055A616422024B1A8052
:1000A00010BDC0460044004178000020094B30B527
:1000B00099685860DB68084A084C9B00814200D868
:1000C00030BD4508D5611480157DED07FCD5C018FD
:1000D000F4E7C046780000200040004102A5FFFF81
:1000E000F0B5194B0A00197C85B05C69002929D04C
:1000F000042A1FD100680F263027520004AB9B183A
:100100000B3B9D1A01003140092919D83943197058
:10011000013B00099D42F5D10A200C4B01A90B803F
:100120008B1898700330D8700432E068FFF7ACFF8A
:1001300005B0F0BD022A01D10088DCE70078DAE7DB
:100140003731E4E70100F0E7780000203078000064
:10015000214A224B117E002908D1197858780918B4
:100160008020C9B259701E498002C861117E0131D8
:10017000C9B211765978F02902D85978092908D8D6
:100180001978494249B21970197858780918C9B2D2
:100190005970117E5B78994203D18021104B8902FE
:1001A000D9611388002B09D01388013B9BB21380BF
:1001B000002B03D180210A4B09059961538B002B39
:1001C00008D0538B013B9BB25383002B02D10822F2
:1001D000044B1A607047C0467800002000000020E1
:1001E000004400419844004102BEFEE705BEFEE720
:1001F0000DBEFEE70EBEFEE710230249CA681A4292
:10020000FCD0704700080040024A53785BB2002BD4
:10021000FBDB7047000C0040074AFF3053699B0B23
:100220009B035361022303728279823B13438371E0
:10023000037A9B07FCD5704724020020F8B51A4FBB
:1002400006003B7F08001400002B12D1174B184A00
:1002500018491A645A6C920B92035A645A6C0A40F9
:100260005A64A22240235200B15C0B43B3540123D1
:100270003B774825FF35735DDB07DB0F12D00B4A58
:10028000536C9B049B0C9C4202D9546CA404A40C98
:100290002200074900F0BAFE0123735500233B7783
:1002A0002000F8BD1C00FBE778000020240200209D
:1002B000E4010020FF3F00F013B56B46DC1D044B4A
:1002C00001222100186AFFF7B9FF207816BDC04649
:1002D00078000020F7B5009001201C4D1C005B0148
:1002E00016000193EA18536910325B005B0F033369
:1002F0009840B04221D8802350681B0603435360C6
:100300006301ED1829616B69B1049B0B890C9B0398
:100310000B436B616B690E4908340B406B61009BAA
:1003200064011C190223E3716279823B13436371F8
:10033000E3799B07FCD53000FEBD064BA701FF18F3
:100340003200380000F062FE3900D9E724020020B4
:10035000FF3F00F02401002010B50C000A0001004E
:1003600003480123006AFFF7B5FF200010BDC04617
:1003700078000020012307B5019004481A0001A964
:10038000006AFFF7A7FF01200EBDC04678000020DD
:1003900070B50500C0B0080016000C0000F03FFE6C
:1003A0006B464000023018706A460323760853708B
:1003B000023B5A1EA15C5A00002901D09E4206DC75
:1003C000002369462800FFF785FF40B070BD6846EE
:1003D00001338152EDE7F7B5056808222900AB8BA0
:1003E00006001340FF31002B27D080234020C0247B
:1003F000AA830932AB724A7088714B71B34BB44D0A
:100400005A68A4052A4022435A605A692A40144374
:10041000B04A5C611A60B04AB04C1A615A68144024
:100420008022920222435A605A68920B92035A60C9
:100430000023487133713079FEBD10200A7A0242E0
:10044000F9D0A44A08721778A548A64C07705778C7
:10045000A54807709778E785D778E08D3F02074376
:10046000E785177927865779208E3F02074327862D
:1004700097799B486786D279678E12021743678601
:100480004027994A4F711278007812020243974828
:10049000824200D1F1E026DC8020400082421CD064
:1004A0000BDC812A04D0822A00D1BDE0802A14D13D
:1004B0002100A386343102224DE081235B009A4261
:1004C00000D129E100DAF7E0FF33FF339A4200D18F
:1004D000CEE0874B9A4200D1EEE02023FF35AA7987
:1004E0001343AB71A7E7902109018A426BD017DC57
:1004F000D021C9008A4222D0882109018A4200D134
:100500008FE0A023DB009A42E7D12800FFF784FEAA
:100510008023E28D5B4213433268DBB293728AE739
:10052000744B9A4200D1C7E0D7DD734B9A4200D199
:1005300050E1724B9A42D0D1E38D7371BCE0E38DF0
:100540001B0A012B0BD11222638E934201D8628EBB
:1005500092B200236A492800FFF7BCFE6BE7E38DE7
:100560001B0A022B09D14322638E934201D8628E6B
:1005700092B2644900230431EDE7E38D1B0A032B9B
:10058000ABD1E38DDBB2012B16D0002B05D0022BB3
:10059000A3D1628E5C49D2B211E0594904221231D2
:1005A00001A800F033FD0422638E934201D8628ECD
:1005B00092B2002301A9CEE7628E5449D2B228003C
:1005C000FFF7E6FE37E7E38D28003371FFF724FEDF
:1005D000A0230322C0215B00EA543C4B3C485A6CE8
:1005E000890502400A435A644622FF32AF54484A02
:1005F00030241A6490225200AC545A6B02401143CA
:100600009222596380215200A954424A1A63B022AF
:100610005200AF545A6F10405867B2235B00E95440
:1006200009E7311D012296E75022A386238E0F2071
:100630001340220036321370238E03402386238E0C
:10064000032B15D81378002B0BD0238E08335B01B6
:10065000EB189B799B062100DB0FA3863431002326
:1006600029E7238E08335B01EB189B79DB06F2E761
:1006700020238A7913438B71DDE68022238E0F219C
:100680001340220036321370238E0B402386E38DF5
:10069000002B00D021E7238E002B00D11DE7238EF5
:1006A000032B00D919E71378002B09D02022238EC1
:1006B00008335B01EB185A712800FFF7ADFDBAE66D
:1006C000238E102208335B01EB18F4E7240200208C
:1006D000FFFFFF8FA401002024010020FF3F00F056
:1006E000A400002078000020A500002002030000E4
:1006F0000103000021200000A121000021220000B0
:100700004410000000000020B8120000AC120000ED
:10071000E4010020640100208022238E1340220087
:10072000363213700F22238E13402386E38D002B65
:1007300000D0D2E6238E002B00D1CEE6238E032BF1
:1007400000D9CAE6230036331B78002B20D0238E35
:1007500008335B01EB189B799B06ADD5238E1132D4
:1007600008335B01EB181A71238E08335B01EB1819
:10077000DB795B06A0D5238E203208335B01EB18B2
:10078000DA71238E3E3A08335B01EB181A7193E756
:10079000238E08335B01EB189B79DB0600D48BE7D3
:1007A0001022238E08335B01EB181A71238E083355
:1007B0005B01EB18DB799B0600D47DE7238E921852
:1007C00008335B01EB18DA71238E1F3A08335B01A3
:1007D000EB18DBE70822638E934201D8628E92B257
:1007E000014900234831B6E600000020F8B50B4F60
:1007F0000600380020300D00FFF7EDFD2C0000282A
:1008000008D1050008E022003100386AFFF716FD24
:10081000241A3618002CF6D12800F8BD78000020E4
:1008200070B5084C0500200020300E00FFF7D3FD06
:1008300003000020834204D032002900206AFFF721
:10084000FDFC70BD7800002010B5084C2000203061
:10085000FFF7C1FD03000020834205D04823226A30
:10086000FF33D05CC007C00F10BDC0467800002029
:100870000D4A0E4870B5824206D10D4A0D4B00213B
:1008800093420DD100F01AF80B4C00239442F4D09F
:10089000D1188842F1D9E55804330D60F8E702C356
:1008A0009342FCD3EEE7C046000000205C0000202D
:1008B000A40200205C000020F8120000F0B50F4AEE
:1008C0008FB0136800AF01332AD00D4B0D49D0B261
:1008D0009963002824D10C4B0C491B78DB07DB0FF4
:1008E00018D00860136883F30888FF231100994328
:1008F000074B99605368184712E0C046002000007B
:10090000780000200420000038040040FC1F002074
:1009100000ED00E00C68D748844200D0A1E10B60F4
:100920001E210226D44AD54C53688B43334353606F
:10093000D34BA382A38A3343A382FA60E368334292
:10094000FCD00123CF4DAB60FFF75EFCCE4B6B605C
:10095000FFF75AFC8223DB016B80FFF755FC8022F6
:10096000A38C9343A384FFF747FCC84BE362FFF7D4
:1009700043FCA28CC64B1343A384FFF73DFCA38C1E
:100980001E438023A6841900403BE2680A42FCD043
:10099000E2681A42F9D00024FFF72EFCAC60FFF7A2
:1009A00033FCBC4B6B60FFF72FFCC021BA4BBB4A3A
:1009B000BB485A60026A09061202120A0A4302621E
:1009C00007229C601A6062B6B6490126CC691932CA
:1009D0002243CA610F21B44C227832432270B34AB9
:1009E00014788C431470062411780C431470B04CA6
:1009F0002178314321700F2411780C40602114704C
:100A00001478214311701C00AA4AA44B6A80B86074
:100A10003B606B785BB2002BFBDB0123A64E327888
:100A200013433370B378DB07FCD41F21A34A136848
:100A30005B0B0B408B4200D10523308DA04D0B404A
:100A40009B0128400343338513689B0C0B401F2BED
:100A500000D1023B1F20318D034081430B4333857E
:100A600013680722DB0D13407A60934200D1032301
:100A70007968328D0B4093491B030A4013437F2250
:100A80003385337890481340337004233278002143
:100A900013430C223370706233899343338133895B
:100AA0000B3A934333817F3200F0A8FA0022874D3E
:100AB000874B2E62AB620223AA84317885480B43B0
:100AC00080213370844B890299600821016083483A
:100AD000012601608021090599609961C0213B6868
:100AE00009066360BB681B6A1B021B0A0B43B968DB
:100AF0000B627B68A26023602C003C342800AB6A48
:100B000020309847002800D026702378002BF5D09D
:100B1000734B102218336B610823BA18D1180A00DE
:100B20006F4B343351CB51C251CB51C211CB11C297
:100B3000FB68FA689B685B035B0F9B005B58EB608C
:100B4000926892B253432A00AB60FB683D321B8B24
:100B5000DB05DB0F137000232B642B007A22443358
:100B60001A706B6940211B695E489847002804D0C1
:100B700008225D4B1A6064236B835C4B594A986072
:100B8000DA600023594A1361584C2369A2689342E2
:100B9000E7D2E3681B78FF2B5BD0232B00D0E6E184
:100BA0002B7C002B05D06B6902225149D868FFF7D6
:100BB0006BFA2B0044331B78532B00D09EE0A368C4
:100BC0002669B3421BD9E168626901310136B96017
:100BD000E16026619B1B93424AD2A361A369B96875
:100BE0001A00286CFB6000F011FAFA68FB68944662
:100BF000F618BB6826616344E3603B7B23773B4B7D
:100C00003A4A1B695169013B1361D368FB60013BA0
:100C1000D360137F8B420BD2C91A6B69286C9B6916
:100C20009847002804D008222F4B1A6064236B8356
:100C3000C0462B007A2244331A7000222B4B5A6193
:100C40002B7C934205D06B6901322A49D868FFF7A3
:100C50001BFA264B1A6901321A61DA680132DA602E
:100C600092E7254B0860013B002BFCD10B6039E675
:100C7000A261B3E7358173070040004100080040DE
:100C80000C060000000C004001050100B805FF7DC6
:100C9000040A00000007030010E000E0E703000082
:100CA00000ED00E000040040584400413C44004195
:100CB000594400410640000000500041246080007B
:100CC0003FF8FFFFFF8FFFFF240200207800002085
:100CD000D70300008844004100440041984400418B
:100CE00044100000BD00002094440041F8000020A2
:100CF000EC120000EF12000048E80100522B11D165
:100D00002B003D331B78002B05D0AB4B2A6C9A424D
:100D100001D8AA4B2B646B696269296C5869FFF78B
:100D2000B3F986E74F2B03D163692A6C137080E710
:100D3000482B03D163692A6C13807AE7572B03D1C0
:100D40002B6C62691A6074E72A003D3212786F2BAF
:100D50000DD1002A06D02B6C994A043B934201D84E
:100D600014342C640121286CFFF7BAF961E7682B71
:100D70000ED1296C002A09D0914A0B1F934205D845
:100D800000232000636114300221EDE70B88F8E7AF
:100D9000772B0ED1296C002A09D0894A0B1F934268
:100DA00005D800232000636114300421DCE70B68C0
:100DB000F8E7002A1CD1472B1AD1824B5B6972B627
:100DC000EFF308827F490A621A6882F308885B6839
:100DD00018470B6A83F3088862B67A4B0533DB7FCA
:100DE000002B00D125E76B6906201B68984720E798
:100DF000542B08D10222533B2B7473496B69D8687A
:100E0000FFF742F915E74E2B0BD12B7C002B05D1B8
:100E10006B6902226C49D868FFF736F900232B74FE
:100E200007E7562B1ED16B6901226849D868FFF786
:100E30002BF96B69664903225431D868FFF724F90E
:100E40006B6901226349D868FFF71EF96B69604935
:100E50000E225831D868FFF717F95F496B69E160D6
:100E60001722CCE7582B0BD1002A06D16069FFF777
:100E70001DF96B6903225949C1E780208001F6E71B
:100E8000592B40D163692E6C002B04D1A6626B698B
:100E900003225349B3E7002A06D080206B68800103
:100EA000834201D0FFF702F98020464B5B69FB606B
:100EB0009A08444B9B6A9C464A4B59688143596047
:100EC000E9688908B960002AE1D047491980197D8D
:100ED000C907FCD561463400F9600021F868260096
:100EE0008446B868814201D0914206D13F481880BB
:100EF000187DC007FCD5521AE5E7F868013140C8F3
:100F0000F86040C4EAE75A2B00D092E661690024F9
:100F10002B6C3748591899421FD16B690122D86848
:100F20003449FFF7B1F807230F222240D0B2010065
:100F300024093031092A00DD07311022BA18D154B2
:100F4000013BF1D210216B6908227918D868FFF7AC
:100F50009BF86B690322284951E71E78220A7240E8
:100F60005200125A24025440A4B20133D3E71A00AB
:100F7000303AD1B2092904D863691B011343636174
:100F800067E61A00413A052A03D86269373B120125
:100F9000F4E71A00613A052A03D86269573B120147
:100FA000ECE700222C2B03D163692B64626150E6CD
:100FB000290044310B70F9E7FFFFFF1F00500020AC
:100FC000FBFFFF1FF8000020EC120000C51200001C
:100FD00044100000C7120000C9120000E112000016
:100FE000E51200000040004144A5FFFF04A5FFFFFB
:100FF000AC100000E9120000EB1200000300121810
:10100000934200D1704719700133F9E7002310B5FE
:101010009A4200D110BDCC5CC4540133F8E70023E0
:10102000C25C0133002AFBD1581E7047F8B5C04698
:10103000F8BC08BC9E467047F8B5C046F8BC08BC72
:101040009E467047120100020200004041234D00FD
:1010500000020102000104030904000075030000FE
:10106000B9020000490800005903000021080000EF
:1010700059030000ED070000080000001000000008
:10108000200000004000000080000000000100007F
:101090000002000000040000322E30005B41726448
:1010A00075696E6F3A58595A505D00000000211062
:1010B000422063308440A550C660E77008812991C2
:1010C0004AA16BB18CC1ADD1CEE1EFF1311210026A
:1010D00073325222B5529442F772D6623993188312
:1010E0007BB35AA3BDD39CC3FFF3DEE36224433436
:1010F00020040114E664C774A44485546AA54BB562
:1011000028850995EEE5CFF5ACC58DD55336722609
:1011100011163006D776F6669556B4465BB77AA7B1
:1011200019973887DFF7FEE79DD7BCC7C448E55855
:101130008668A7784008611802282338CCC9EDD901
:101140008EE9AFF9488969990AA92BB9F55AD44AA9
:10115000B77A966A711A500A333A122AFDDBDCCB51
:10116000BFFB9EEB799B588B3BBB1AABA66C877C75
:10117000E44CC55C222C033C600C411CAEED8FFDA1
:10118000ECCDCDDD2AAD0BBD688D499D977EB66E49
:10119000D55EF44E133E322E511E700E9FFFBEEFF1
:1011A000DDDFFCCF1BBF3AAF599F788F8891A981B3
:1011B000CAB1EBA10CD12DC14EF16FE18010A1009D
:1011C000C230E3200450254046706760B98398938D
:1011D000FBA3DAB33DC31CD37FE35EF3B1029012ED
:1011E000F322D2323542145277625672EAB5CBA559
:1011F000A89589856EF54FE52CD50DC5E234C3243D
:10120000A01481046674476424540544DBA7FAB72C
:101210009987B8975FE77EF71DC73CD7D326F2368C
:101220009106B01657667676154634564CD96DC978
:101230000EF92FE9C899E9898AB9ABA944586548DC
:1012400006782768C018E1088238A3287DCB5CDBCC
:101250003FEB1EFBF98BD89BBBAB9ABB754A545A2C
:10126000376A167AF10AD01AB32A923A2EFD0FED98
:101270006CDD4DCDAABD8BADE89DC98D267C076C7C
:10128000645C454CA23C832CE01CC10C1FEF3EFF6C
:101290005DCF7CDF9BAFBABFD98FF89F176E367ECC
:1012A000554E745E932EB23ED10EF01E417264759F
:1012B000696E6F204C4C430041726475696E6F20FB
:1012C0005A65726F00760020002053657020203927
:1012D00020323032312031323A35343A31350A0D4C
:1012E00000580A0D00590A0D005A00230A0D003E4D
:0812F0000000000000000000F6
:1012F80001140000090243000201008032090400C1
:101308000001020200000524001001042402000567
:10131800240600010524010001070583030800FFD6
:1013280009040100020A00000007058102400000CC
:10133800070502024000000000C20100000008008A
:0C134800010000006900000041000000EE
:040000030000087180
:00000001FF
